:020000040800F2
:10000000B00400209D010008A5010008A701000818
:10001000A9010008AB010008AD01000800000000C4
:100020000000000000000000000000009F17000812
:10003000B1010008000000004D160008B9170008C3
:10004000B7010008B7010008B7010008B7010008B0
:10005000B70100084F160008CD030008B7010008DB
:10006000B7010008B7010008B7010008B701000890
:10007000B7010008B7010008B7010008B701000880
:10008000B7010008B7010008B7010008B701000870
:10009000B7010008B7010008B7010008B701000860
:1000A000B7010008B7010008B7010008B701000850
:1000B000B7010008B7010008B7010008B701000840
:1000C000B7010008B7010008B70100089116000841
:1000D000B7010008B7010008B7010008B701000820
:1000E000D3030008B7010008B7010008B7010008F2
:1000F000B7010008B7010008B7010008B701000800
:10010000B7010008B7010008B7010008B7010008EF
:10011000B7010008B7010008B7010008B7010008DF
:10012000B7010008B7010008B7010008B7010008CF
:10013000B7010008B7010008B7010008B7010008BF
:10014000B7010008B7010008B7010008B7010008AF
:10015000B7010008B7010008B7010008B70100089F
:10016000B7010008B7010008B7010008B70100088F
:10017000B7010008B7010008B7010008000000003F
:10018000B7010008B7010008DFF80CD000F068F8EC
:1001900000480047B91F0008B00400200648804707
:1001A00006480047FEE7FEE7FEE7FEE7FEE7FEE75C
:1001B000FEE7FEE7FEE7FEE7691800088901000890
:1001C0002DE9F05F0546002092469B46884606468C
:1001D000814640241BE0284641464746224600F01F
:1001E0002FF853465A46C01A914110D3114618466B
:1001F000224600F016F82D1A67EB01084F462246FA
:100200000120002100F00DF817EB00094E41201EDF
:10021000A4F10104DFDC484631462A464346BDE8E6
:10022000F09F202A04DB203A00FA02F100207047F8
:100230009140C2F1200320FA03F319439040704724
:10024000202A04DB203A21FA02F00021704721FA2B
:1002500002F3D040C2F12002914008431946704792
:10026000064C074D06E0E06840F0010394E8070003
:1002700098471034AC42F6D3FFF78AFF602000089D
:100280008020000810B50446002101F0E1F9014684
:1002900026A001F005FD0121204601F0D9F9014613
:1002A00026A001F0FDFC0221204601F0D1F9014613
:1002B00026A001F0F5FC0321204601F0C9F9014612
:1002C00026A001F0EDFC0421204601F0C1F9014611
:1002D00026A001F0E5FC0521204601F0B9F9014610
:1002E00026A001F0DDFC0621204601F0B1F901460F
:1002F00025A001F0D5FC0721204601F0A9F901460F
:1003000024A001F0CDFC0821204601F0A1F901460E
:1003100025A001F0C5FC0921204601F099F901460C
:10032000BDE8104024A001F0BBBC0000434F4E4686
:1003300049475F303A202523580A0000434F4E4674
:1003400049475F313A202523580A0000434F4E4663
:1003500049475F323A202523580A0000434F4E4652
:1003600049475F333A202523580A0000434F4E4641
:1003700049475F343A202523580A0000544F465F0E
:10038000313A202523580A00544F465F303A202541
:1003900023580A004552524F525F464C4147533A48
:1003A000202523580A00000054494D454F55543A22
:1003B000202523580A000000434C4F434B5F524115
:1003C00054453A202523580A00000000012000F07F
:1003D0002BB84FF4806000F027B890F83510022950
:1003E00003D08021416501207047052180F8351038
:1003F0000068016821F001010160002070470000E1
:1004000070B5044600F0FEF80546601C02D00448B2
:100410000078044400F0F6F8401BA042FAD370BD07
:100420000000002070470000044910B50A6802422D
:1004300002D00860FFF7F6FF10BD0000143C014039
:100440002DE9F84FDFF87CB100224FF001084FF0A2
:10045000030A4FF00F090BF1040E00BF0B6808FAF6
:1004600002F42340A3426ED14D68022D01D0122D1B
:100470000ED1D50800EB850CDCF820505607F70E9E
:1004800009FA07F6B5430E69BE402E43CCF820604A
:10049000066855000F790AFA05FC07F0030726EAFB
:1004A0000C06AF40374307604E68012E05D0022E80
:1004B00003D0112E01D0122E0ED18668CF6826EA05
:1004C0000C06AF40374387604668A6430C79C4F3F7
:1004D0000014944034434460C6688C6826EA0C06D5
:1004E000AC403443C4604C68E40065D5364C2568A4
:1004F00045F480452560246822F0030504F4804417
:100500000094324C2E19D6F8084895072F0F09FA97
:1005100007F5AC432E4DA84201D1002524E02D4D16
:10052000A84201D101251FE02B4DA84201D102258F
:100530001AE02A4DA84201D1032515E0284DA84212
:1005400002D1042510E037E0264DA84201D105254F
:100550000AE0254DA84201D1062505E0234DA84219
:1005600001D1072500E00825BD402543C6F80858FD
:10057000DBF800405D464E689C43F60300D51C4303
:100580002C60DEF8004075464E689C43B60300D5EB
:100590001C432C600B4D08352C684E689C43F602BA
:1005A00000D51C432C60074D0C352C684E689C43CD
:1005B000B60200D51C432C60521C102AFFF44EAF2B
:1005C000BDE8F88F003C0140443802400030014053
:1005D000000002400004024000080240000C0240FB
:1005E000001002400014024000180240001C0240AB
:1005F00042694A40426170470AB18161704709040B
:10060000FBE7000001488068704700000000002000
:100610000248816802781144816070470000002020
:100620000B4810B5016841F400710160016841F4A4
:1006300080610160016841F480710160032000F075
:100640009FF8002000F006F800F024F8002010BD0C
:10065000003C024070B50D4D04464FF47A71287885
:10066000B1FBF0F00A490968B1FBF0F000F047FE79
:1006700048B9102C07D200222146501E00F060F825
:1006800000206C6070BD012070BD000000000020E3
:100690000C000020234808B5016841F48041016046
:1006A000006800F4804000901E48001F016841F07F
:1006B00080510160006800F080500090072000F039
:1006C0005FF8002211466FF00B0000F039F80022AD
:1006D00011466FF00A0000F033F8002211466FF067
:1006E000090000F02DF800221146501F00F028F8F4
:1006F00000221146101F00F023F800221146901E20
:1007000000F01EF800221146501E00F019F80122D8
:100710000021052000F014F8BDE80840052000F095
:1007200003B800004438024000F01F02012191404C
:100730004009800000F1E020C0F80011704700007F
:10074000F0B40E4B1B680C46C3F30223C3F107053C
:10075000042D00D90425191D072901D2002300E02A
:10076000DB1E012606FA05F1491E214099409E40F4
:10077000761E16403143F0BC00F058BF0CED00E08F
:10078000064900F0070208684FF6FF03184040EAE8
:100790000220034A10430860704700000CED00E09F
:1007A0000000FA052DE9F0470E46050065D0DFF898
:1007B0001481D8F80000F7B200F00F00B04207D261
:1007C00088F80070D8F8000000F00F00B04254D153
:1007D00028683D4C810712D5400703D5206840F4B6
:1007E000E05020602878000703D5206840F460407E
:1007F00020602068A96820F0F00008432060287875
:10080000C0072DD0304968680839012812D0022865
:1008100013D0032811D00968890700292DDA21682F
:1008200021F0030101432160FFF7ECFE814641F214
:10083000883A0EE009688903EFE709688901ECE767
:10084000FFF7E0FEA0EB0901514502D90320BDE806
:10085000F0872068696800F00C00B0EB810FEFD1E1
:10086000D8F80010404601F00F01B14207D90770D7
:10087000006800F00F00B04201D00120E7E72878BF
:10088000400705D52068E96820F4E050084320605F
:100890002878000706D52068296920F4604040EADE
:1008A000C100206000F03CF82168084AC1F3031140
:1008B000515CC840064908600020FFF7CBFE0020CD
:1008C000C5E70000003C024008380240482000080C
:1008D0000C00002001480068704700000C00002058
:1008E0000448054900680968044AC1F38221515C43
:1008F000C84070470C00002008380240582000080B
:100900000448054900680968044AC1F34231515C52
:10091000C84070470C0000200838024058200008EA
:10092000154810B5006810F00C02144813D041109F
:10093000042A0FD0082A0ED10F4C241F22682368E6
:1009400002F03F025B0207D52068C0F38810A0FBCD
:10095000010106E0084610BD2168C1F38811A1FB22
:1009600000010023FFF72CFC2168C1F30141491C61
:100970004900B0FBF1F010BD083802400024F4003B
:100980002DE9F84F050076D02878DFF8F8B2BE4C94
:10099000C00749D0DBF800105846C1F38101012996
:1009A00008D00068C0F3810002280AD1201D006829
:1009B000400206D52068800336D568680028E2D05A
:1009C00032E06868B0F5803F10D0B0F5A02F206805
:1009D00010D020F480302060206820F48020206037
:1009E0006868A0B1FFF70EFE06460CE0206840F4F0
:1009F0008030F4E740F480202060F7E7FFF702FE44
:100A0000801B642873D820688003F7D50CE0FFF7BB
:100A1000F9FD064605E000BFFFF7F4FD801B6428E2
:100A2000F0D820688003F7D42878DFF86082800748
:100A30004FF000093ED5DBF80010584611F00C0FBE
:100A400009D00068C0F3810002280BD18D48001F37
:100A50000068400206D42068800715D5E8680128A0
:100A600009D111E0E868B8B10120C8F80000FFF72B
:100A7000C9FD064605E002E1FFF7C4FD801B022820
:100A8000C0D820688007F7D52068296920F0F800D1
:100A900040EAC10020600DE0C8F80090FFF7B2FD09
:100AA000064604E0FFF7AEFD801B02281FD8206831
:100AB0008007F7D42878000722D5724E74486969F8
:100AC0006C3671B101210160FFF79CFD074604E01F
:100AD000FFF798FDC01B022809D830688007F7D5BA
:100AE0000EE0C0F80090FFF78DFD074605E083E0BB
:100AF000FFF788FDC01B02287ED830688007F7D436
:100B00002878400768D5DFF87CA100270AF1380A69
:100B1000DAF80000C0000BD4DAF8001041F0805180
:100B2000CAF80010DAF80000012700F080500090A9
:100B3000584E3068C00510D4306840F48070306082
:100B4000FFF760FD009005E0FFF75CFD0099401A9B
:100B5000022851D83068C005F6D54A4EA8686836D4
:100B600001280FD00528306810D020F00100306037
:100B7000306820F004003060A868B8B1FFF742FD8B
:100B800000900FE0306840F00100F4E740F004000E
:100B90003060F7E7FFF736FD0099411A41F28830DF
:100BA000814264D830688007F4D50EE0FFF72AFD53
:100BB000009007E0FFF726FD0099411A41F28830C6
:100BC000814254D830688007F4D42FB1DAF800108D
:100BD00021F08051CAF80010A869C0B3DBF80010FA
:100BE000C1F3810102294AD00228484607D0C8F83B
:100BF0006000FFF707FD00E039E005463AE04746B0
:100C0000C8F86000FFF7FEFC064604E0FFF7FAFCB8
:100C1000801B02282BD820688001F7D4D5E9070172
:100C20000843A96A1C4A490802EB01416A6A41EA81
:100C30008211084395F82C1040EA01611148001F09
:100C4000016001203866FFF7DDFC054605E014E091
:100C5000FFF7D8FC401B022809D820688001F7D58F
:100C60000BE000BFFFF7CEFC401B022802D9032097
:100C7000BDE8F88F20688001F4D40020F8E7012057
:100C8000F6E7000008380240003802400000474202
:100C9000800E4742007000400000FFFF704790F850
:100CA0005100704738B504460068426881684B06B9
:100CB00005D4CB0703D0530601D5216C04E08B0784
:100CC00007D5130605D5616C01B02046BDE830405C
:100CD000084711F4B07F48D0930646D54B060AD595
:100CE00094F85130032B3DD0636D43F004036365EA
:100CF000C368836800938B0609D5636D43F00103D5
:100D0000636583680093036823F040030360C805AC
:100D100006D5606D40F0080060652068806800902E
:100D2000606D002821D02068416821F0E001416019
:100D3000012084F85100900718D02068416821F004
:100D4000030141600B4DE06C18B10565E06CFFF7E5
:100D500044FBA06C002808D00565A06CBDE83840B5
:100D6000FFF73BBBC1688068009038BD2046FFF7A5
:100D700095FF38BDBD16000870B5040005D00025EC
:100D8000A56294F8510010B106E0012070BD84F80E
:100D90005050204600F030F8022084F851002068BE
:100DA000016821F040010160D4E901010843D4E960
:100DB00003121143084361690843218B01F4007158
:100DC0000843E1690843216A0843A16A084321688E
:100DD0000860A069042101EA1040616A08432168A3
:100DE00048602068C16921F40061C1616565012026
:100DF00084F85100002070BD00B50068124987B02A
:100E000088421ED111480021026842F480520260DB
:100E1000006800F480500590E02000900220CDE9A9
:100E20000101032003900520049069460848FFF75C
:100E300007FB012200212320FFF782FC2320FFF77C
:100E400073FC07B000BD0000003001404438024090
:100E5000000002402DE9F84F0446406800269846FD
:100E600017460D464FF00409B0F5827F01D1A06806
:100E700090B194F85000012819D04FF0010B84F87C
:100E800050B0FFF7BFFB009094F851004FF0000AFC
:100E900001280ED002267FE084F8519013460A46BE
:100EA0002046CDF8008000F031F9BDE8F88F02202F
:100EB000FBE7002D6FD0002F6DD084F85190C4F85F
:100EC00054A0A563A787E787C4F830A0A4F834A08E
:100ED000A4F836A0C4F840A0C4F844A0A0684FF419
:100EE0000047B84204D12068016821F480410160C4
:100EF00020680168490603D4016841F0400101609F
:100F0000E068B8B133E020688168C90706D0007B8B
:100F100005F8010BE08F401EE0870BE0B8F1000FF1
:100F200023D0B8F1FF3F05D0FFF76CFB0099411AC1
:100F300041451AD2E08F0028E5D11BE02068816886
:100F4000C90706D0C06825F8020BE08F401EE08775
:100F50000DE0B8F1000F08D0B8F1FF3F07D0FFF760
:100F600051FB0099411A414501D3032614E0E08F5B
:100F70000028E3D16068B0F5827F0AD1A068B8424A
:100F800002D0B0F5806F04D12068016821F04001E3
:100F90000160606D00B1012684F851B084F850A062
:100FA000304682E72DE9F84F044690F850000026BD
:100FB000994617460D4601280DD04FF0010B84F8D5
:100FC00050B0FFF71FFB804694F85100B24601284D
:100FD00004D0022694E00220BDE8F88F002D7BD0DB
:100FE000002F79D0032084F85100C4F854A0256361
:100FF000A786E786C4F838A0A4F83CA0A4F83EA0D1
:10100000C4F844A0C4F840A0A068B0F5004F04D1D3
:101010002068016841F48041016020680168490648
:1010200003D4016841F040010160E068B0F5006F51
:10103000606804D030B3E08E012823D03EE010B1C8
:10104000E08E01281AD135F8021B206805E02068DF
:101050008168890706D535F8021BC160E08E401E05
:10106000E0860BE0B9F1000F34D0B9F1FF3F05D0B5
:10107000FFF7C8FAA0EB080149452BD2E08E002803
:10108000E5D11EE0216815F8010B087306E0206821
:101090008168890706D515F8011B0173E08E401E93
:1010A000E0860BE0B9F1000F14D0B9F1FF3F05D095
:1010B000FFF7A8FAA0EB080149450BD2E08E002803
:1010C000E5D14B46012202212046CDF8008000F0F8
:1010D0001BFB10B1032613E011E0424649462046AF
:1010E00000F0DCFA18B101262020606508E0A06855
:1010F00018B92068C16880680090606D00B1012651
:1011000084F851B084F850A0304665E72DE9F84FD7
:10111000044690F8500000260A9F9A4693460D46D2
:101120004FF0010801280ED0012084F85000FFF78D
:1011300069FA814694F85100616801280CD0B1F534
:10114000827F07D102E00220BDE8F88FA16809B9CB
:10115000042801D00226BDE055B1BBF1000F07D035
:10116000BAF1000F04D094F85100012802D004E035
:101170000126AFE0052084F8510000206065C4F826
:1011800038B0A4F83EA0A4F83CA02563A4F836A08B
:10119000A4F834A02064606420680168490603D480
:1011A000016841F040010160E068B0F5006F6068DF
:1011B00004D0E8B3E08E01283BD06AE010B1E08EA5
:1011C00001282ED1216835F8020BC860E08E401E40
:1011D000E08626E0B8F1000F0DD0E08E58B120680F
:1011E0008168890707D535F8021BC160E08E401E73
:1011F000E0864FF00008E08F58B120688168C90789
:1012000007D0C0682BF8020BE08F401EE0874FF03C
:101210000108781C05D0FFF7F5F9A0EB0900B842EA
:1012200046D2E08E0028D5D1E08F0028D2D136E01A
:10123000FFE7216815F8010B0873E08E401EE08679
:1012400027E000BFB8F1000F0DD0E08E58B1206844
:101250008168890707D515F8011B0173E08E401ED0
:10126000E0864FF00008E08F58B120688168C90718
:1012700007D0C0680BF8010BE08F401EE0874FF0ED
:101280000108781C05D0FFF7BDF9A0EB0900B842B2
:101290000ED2E08E0028D5D1E08F0028D2D13B4677
:1012A000012202212046CDF8009000F02DFA08B16D
:1012B00003260FE04A463946204600F0EFF918B100
:1012C00001262020606505E0A06818B92068C16883
:1012D00080680090012084F85100002084F85000BC
:1012E000304631E74FF0E0210428086903D020F0B0
:1012F00004000861704740F00400FAE7704710B539
:10130000401EB0F1807F01D3012010BD4FF0E024DA
:1013100060610F21601700F089F90020A0610720AB
:101320002061002010BD10B5FFF7E8FF10BD70B5BB
:10133000040004D094F83900002510B106E0012023
:1013400070BD84F83850204600F022F8242084F83C
:1013500039002068C16821F40051C160204600F0C6
:1013600017FB2068016921F49041016120684169FF
:1013700021F02A0141612068C16841F40051C16037
:10138000E563202084F8390084F83A00002070BD1D
:1013900000B500680E4987B0884216D10D48016833
:1013A00041F4003101600068694600F400300590A6
:1013B0000C20009002200190012002900320039055
:1013C000072004900448FFF73BF807B000BD000079
:1013D0000044004040380240000002402DE9F8433C
:1013E000044690F839001F4616460D46202850D175
:1013F000A5B19EB194F8380001284AD0012084F8A4
:1014000038004FF00008C4F83C80212084F83900EF
:10141000FFF7F8F8A6848146E68426E00120BDE8BF
:10142000F883E08C401EE084A0684B46B0F5805FF6
:101430004FF000024FF080012046009703D000F0EB
:10144000FDFBE8B90DE000F0F9FBC8B92888216878
:10145000C0F308004860206908B16D1C05E0AD1CB0
:1014600003E0216815F8010B4860E08C0028D8D112
:101470004B46002240212046009700F0DFFB08B1D8
:101480000320CCE7202084F8390084F8388000203D
:10149000C5E70220C3E700002DE9F0474C4886B0BD
:1014A0000024016841F010010160016801F01001A1
:1014B0000591016841F004010160016801F0040137
:1014C0000591016841F080010160016801F080012F
:1014D0000591016841F001010160016801F001011D
:1014E0000591016841F002010160016801F002010B
:1014F0000591016841F0080101600068DFF8D480BF
:1015000000F00800059000220E214046FFF774F815
:10151000DFF8C490012210214846FFF76DF8DFF88C
:10152000BCA04FF47047002239465046FFF764F8DC
:101530000E200125022603948DE86100694640468D
:10154000FEF77EFF30208DE8510069464046FEF7E9
:1015500077FF23480095CDE9010469464846FEF728
:101560006FFF1020009011200394CDE9010569461A
:101570004846FEF765FF0420CDE900046946194896
:101580000294FEF75DFFA80200901748CDE9010420
:1015900069465046FEF754FF0097CDE9015469466D
:1015A00050460394FEF74CFF022200210620FFF76D
:1015B000C7F80620FFF7B8F8012200212820FFF71E
:1015C000BFF82820FFF7B0F806B0BDE8F0870000AC
:1015D000303802400010024000000240000C02407F
:1015E0000000111000040240000021100E4810B548
:1015F0000C4901604FF48271416000218160C1603B
:101600004FF400720161C0E905123822C0E90721D8
:10161000416281620A21C162FFF7AEFB002800D05F
:10162000FEE710BD00300140140000200907090E3C
:10163000002806DA00F00F0000F1E02080F8141D09
:10164000704700F1E02080F8001470477047704741
:101650007CB50E4D04468DF800100022102128465E
:10166000FEF7CAFF6423012269462046FFF79AFC71
:101670006423012201A92046FFF7ECFB012210217F
:101680002846FEF7B9FF9DF804007CBD000002402B
:101690000148FFF707BB00001400002038B50B46D7
:1016A000009204460022802100F02EF8002804D089
:1016B000606D40F020006065032038BD10B5806B80
:1016C0000021C187C186FFF7E9FA10BD2DE9F0417D
:1016D0000C4D16460F4680461C4600221021284617
:1016E000FEF78AFF2346324639464046FFF75AFC4A
:1016F0000446012210212846FEF77EFF2046BDE861
:10170000F0810000000002402DE9F0411D4617461F
:101710000E460446DDF8188035E0681C33D02DB144
:10172000FEF770FFA0EB0800A8422CD320684168A8
:1017300021F0E00141606068B0F5827F0BD1A068C4
:10174000B0F5004F02D0B0F5806F04D12068016879
:1017500021F040010160A06AB0F5005F0AD1206865
:1017600001684DF6FF72114001602068016841F484
:1017700000510160012084F85100002084F85000DD
:101780000320BDE8F0812068806836EA000004D0BC
:101790000020B842C1D10020F3E70120F9E77047EB
:1017A00008B540318DF800108DF801206423022225
:1017B0006946FFF78BFF08BD10B5FEF729FFBDE8AE
:1017C0001040FFF7B0BD000030B5254893B00025AC
:1017D000016841F080510160006800F08050119074
:1017E0002048016841F4804101600068022400F44F
:1017F0008040119001200090000401908001CDE90B
:101800000640082008904FF4A870CDE9090407208D
:101810000B906846FFF7B4F800B1FEE70CA90F2063
:1018200081E831004FF4A0500F904FF48050109099
:1018300005210CA8FEF7B6FF00B1FEE7FFF74AF856
:101840004FF47A71B0FBF1F0FFF759FD0420FFF778
:1018500049FD00221146501EFEF772FF13B030BD45
:1018600040380240007000401048016841F47001A7
:1018700001600F48016841F0010101600C4A00213C
:101880000832116002680B4B1A400260031D0A4ABD
:101890001A60026822F48022026005480C30016060
:1018A00002495806803908607047000088ED00E062
:1018B00000380240FFFFF6FE1030002470B50646E7
:1018C0002DA000F0EDF9FEF79DFE84B24FF4FA75FD
:1018D0003046FFF7E4F9012804D0FEF793FE001B21
:1018E000A842F5D3FEF78EFE001BA84201D30320C9
:1018F00070BD452200213046FFF752FFA8BB4122B0
:1019000001213046FFF74CFF78BBA0220221304670
:10191000FFF746FF48BB032211463046FFF740FF62
:1019200018BB5F2204213046FFF73AFFE8B9E022F6
:1019300005213046FFF734FFB8B9C82206213046EA
:10194000FFF72EFF88B9032207213046FFF728FF53
:1019500058B91B2208213046FFF722FF28B9002280
:1019600009213046FFF71CFF08B1012070BD304649
:10197000FEF788FC002070BD496E697469616C696E
:101980007A696E6720544443313031310A000000D7
:101990002DE9F04104460068016921F44052E168F4
:1019A000114301612168C86849F20C6290432369C0
:1019B000A268E5691A4363692B431A430243CA606C
:1019C0002168486920F44072A06910434861E169C8
:1019D0006425B1F5004F9748974A21684FF03208C7
:1019E0003FD0914201D081427CD1FEF789FF00EBCC
:1019F000C00101EB001061688900B0FBF1F6FEF751
:101A00007FFF00EBC00101EB001061688900B0FBB3
:101A1000F1F0B0FBF5F06FF01801484306EB8001E0
:101A200008EB0110B0FBF5F000F0F006FEF768FFE0
:101A300000EBC00101EB001061688900B0FBF1F020
:101A4000B0FBF5F006EB0016FEF75AFF00EBC00105
:101A500001EB001061688900B0FBF1F7FEF750FF61
:101A6000D2E0914201D081423DD1FEF749FF00EB27
:101A7000C00101EB001061684900B0FBF1F0B0FB60
:101A8000F5F00601FEF73CFF00EBC00101EB001092
:101A900061684900B0FBF1F7FEF732FF00EBC001CF
:101AA00001EB001061684900B0FBF1F0B0FBF5F00C
:101AB0006FF01801484307EB800108EBC100B0FB51
:101AC000F5F000F0F80006EB4006FEF719FF00EB1A
:101AD000C00101EB001061684900B0FBF1F7FEF7AF
:101AE0000FFF3CE055E0FEF7FBFE00EBC00101EB11
:101AF000001061684900B0FBF1F0B0FBF5F00601A1
:101B0000FEF7EEFE00EBC00101EB0010616849003A
:101B1000B0FBF1F7FEF7E4FE00EBC00101EB0010B3
:101B200061684900B0FBF1F0B0FBF5F06FF018010F
:101B3000484307EB800108EBC100B0FBF5F000F073
:101B4000F80006EB4006FEF7CBFE00EBC00101EB10
:101B5000001061684900B0FBF1F7FEF7C1FE00EB31
:101B6000C00101EB001061684900B0FBF1F0B0FB6F
:101B7000F5F06FF01801484307EB800108EBC10056
:101B8000B0FBF5F000F00700216830448860BDE844
:101B9000F081FEF7A5FE00EBC00101EB00106168CB
:101BA0008900B0FBF1F6FEF79BFE00EBC00101EBF4
:101BB000001061688900B0FBF1F0B0FBF5F06FF048
:101BC0001801484306EB800108EB0110B0FBF5F06B
:101BD00000F0F006FEF784FE00EBC00101EB001000
:101BE00061688900B0FBF1F0B0FBF5F006EB001680
:101BF000FEF776FE00EBC00101EB00106168890082
:101C0000B0FBF1F7FEF76CFE00EBC00101EB00103A
:101C100061688900B0FBF1F0B0FBF5F06FF01801DE
:101C2000484307EB800108EB0110B0FBF5F000F032
:101C30000F00A9E700140140001001402DE9F04118
:101C4000984617460E460446069D1DE0681C1BD0AC
:101C50002DB1FEF7D7FCA0EB0800A84214D92068EC
:101C6000C16821F4D071C1602068416921F001018F
:101C70004161202084F8390084F83A00002084F87B
:101C800038000320BDE8F0812068006836EA0000D3
:101C900004D00020B842D9D00020F3E70120F9E7B2
:101CA0000FB4054B10B503A9044A029800F018F8C8
:101CB00010BC5DF814FB0000A11F000810000020FC
:101CC00002E008C8121F08C1002AFAD17047704705
:101CD000002001E001C1121F002AFBD17047000063
:101CE0002DE9FF4F8DB09B460F460446002606E0C7
:101CF00025280BD05A460F999047641C761C2078F3
:101D00000028F5D111B03046BDE8F08F0025A84677
:101D10000122984900E0054314F8013F203B02FAF4
:101D200003F00842F7D120782E2817D114F8010FBC
:101D300045F004052A280ED06FF02F022078A0F17C
:101D4000300109290AD808EB880102EB410100EBB8
:101D50000108641CF2E757F8048B641C20786C2897
:101D60000DD004DC4C2812D06A2811D104E074286C
:101D70000DD07A280CD10AE045F4001507E061780F
:101D800045F48015814202D1641C05F58015641C60
:101D90002278692A45D008DC002AB3D0582A69D0B5
:101DA000632A10D0642A08D13BE0702A67D0732AD6
:101DB00013D0752A5CD0782A5CD010465A460F9909
:101DC0009047761CD3E017F8040B8DF80000002034
:101DD0008DF80100E946012003E057F8049B4FF01D
:101DE000FF3069074FF0000501D40AE06D1C45453E
:101DF0000DDA8542FADB19F805100029F6D106E064
:101E00006D1C8542FCDB19F805100029F8D12E4421
:101E100004E019F8010B5A460F9990476D1EF8D24D
:101E2000A5E00A200021CDE90801C5F302500228EF
:101E30000DD001CFC117031E71F100030DDA4FF071
:101E4000000CD0EB0C006CEB01012D2308E0FF1D12
:101E500027F00707F7E80201EDE72B0504D52B2350
:101E60008DF8283001233BE0EB0739D02023F7E73A
:101E70000A2000E010200021CDE9080107E0102031
:101E8000002145F00405CDE908014FF00808C5F32D
:101E9000025002280FD001CF00214FF0000A2B077B
:101EA0001FD5702A0DD0DDE908C38CF0100C5CEA58
:101EB000030C0CD015E0FF1D27F00707F7E802011F
:101EC000EBE740228DF828204FF0010A0BE050EAA2
:101ED000010306D030238DF828308DF82920022305
:101EE0009A46582A04D024A20DF120090B9209E049
:101EF00026A2F9E7DDE90823FEF762F90B9B9B5C5C
:101F000009F8013D50EA0102F4D1ADEB090020309F
:101F10000890680701D44FF001080899884502DD50
:101F2000A8EB010000E000208046002506E00AA89A
:101F30005A46405D0F9990476D1C761C5545F6DB5F
:101F400004E030205A460F999047761CB8F1000102
:101F5000A8F10108F5DC05E019F8010B5A460F99C4
:101F60009047761C0899481E08900029F4DC641CF0
:101F7000C5E60000092801003031323334353637E8
:101F800038396162636465660000000030313233C5
:101F90003435363738394142434445460000000065
:101FA00013B56423012269460248FFF717FA009827
:101FB0001CBD00006C000020FEF732FBFFF704FCA4
:101FC000FFF76AFAFFF712FB1D481C490C2201605B
:101FD0004FF4E131416000218160C160C0E9041229
:101FE0008161C161FFF7A3F900B1FEE714485838D9
:101FF000FFF764FC134C4FF40055A6146F004FF428
:10200000004829462046FEF7F3FAFA20FEF7F8F9D1
:1020100031462046FEF7ECFAFA20FEF7F1F9394690
:102020002046FEF7E5FAFA20FEF7EAF94146204697
:10203000FEF7DEFAFA20FEF7E3F9E2E7004400409B
:102040006C000020000C02400000000000000000B6
:10205000010203040607080900000000010203044E
:10206000802000080000002014000000C01C0008B0
:1020700094200008140000209C040000D01C0008DC
:102080000100000010000000000000000024F40027
:04209000000000004C
:040000050800018965
:00000001FF
