:020000040800F2
:10000000680400209D010008A5010008A701000860
:10001000A9010008AB010008AD01000800000000C4
:10002000000000000000000000000000B90E000801
:10003000B101000800000000990E0008BB0E000886
:10004000B7010008B7010008B7010008B7010008B0
:10005000B70100089B0E000885020008B7010008E0
:10006000B7010008B7010008B7010008B701000890
:10007000B7010008B7010008B7010008B701000880
:10008000B7010008B7010008B7010008B701000870
:10009000B7010008B7010008B7010008B701000860
:1000A000B7010008B7010008B7010008B701000850
:1000B000B7010008B7010008B7010008B701000840
:1000C000B7010008B7010008B70100089D0E00083D
:1000D000B7010008B7010008B7010008B701000820
:1000E0008B020008B7010008B7010008B70100083B
:1000F000B7010008B7010008B7010008B701000800
:10010000B7010008B7010008B7010008B7010008EF
:10011000B7010008B7010008B7010008B7010008DF
:10012000B7010008B7010008B7010008B7010008CF
:10013000B7010008B7010008B7010008B7010008BF
:10014000B7010008B7010008B7010008B7010008AF
:10015000B7010008B7010008B7010008B70100089F
:10016000B7010008B7010008B7010008B70100088F
:10017000B7010008B7010008B7010008000000003F
:10018000B7010008B7010008DFF80CD000F068F8EC
:1001900000480047DB0F000868040020064880473D
:1001A00006480047FEE7FEE7FEE7FEE7FEE7FEE75C
:1001B000FEE7FEE7FEE7FEE7690F00088901000899
:1001C0002DE9F05F0546002092469B46884606468C
:1001D000814640241BE0284641464746224600F01F
:1001E0002FF853465A46C01A914110D3114618466B
:1001F000224600F016F82D1A67EB01084F462246FA
:100200000120002100F00DF817EB00094E41201EDF
:10021000A4F10104DFDC484631462A464346BDE8E6
:10022000F09F202A04DB203A00FA02F100207047F8
:100230009140C2F1200320FA03F319439040704724
:10024000202A04DB203A21FA02F00021704721FA2B
:1002500002F3D040C2F12002914008431946704792
:10026000064C074D06E0E06840F0010394E8070003
:1002700098471034AC42F6D3FFF78AFFFC0F000812
:100280001C100008012000F017B84FF4806000F047
:1002900013B890F83510022903D080214165012060
:1002A0007047052180F835100068016821F00101D0
:1002B0000160002070477047044910B50A68024287
:1002C00002D00860FFF7F7FF10BD0000143C0140AA
:1002D0002DE9F84FDFF87CB100224FF001084FF014
:1002E000030A4FF00F090BF1040E00BF0B6808FA68
:1002F00002F42340A3426ED14D68022D01D0122D8D
:100300000ED1D50800EB850CDCF820505607F70E0F
:1003100009FA07F6B5430E69BE402E43CCF82060BB
:10032000066855000F790AFA05FC07F0030726EA6C
:100330000C06AF40374307604E68012E05D0022EF1
:1003400003D0112E01D0122E0ED18668CF6826EA76
:100350000C06AF40374387604668A6430C79C4F368
:100360000014944034434460C6688C6826EA0C0646
:10037000AC403443C4604C68E40065D5364C256815
:1003800045F480452560246822F0030504F4804488
:100390000094324C2E19D6F8084895072F0F09FA09
:1003A00007F5AC432E4DA84201D1002524E02D4D88
:1003B000A84201D101251FE02B4DA84201D1022501
:1003C0001AE02A4DA84201D1032515E0284DA84284
:1003D00002D1042510E037E0264DA84201D10525C1
:1003E0000AE0254DA84201D1062505E0234DA8428B
:1003F00001D1072500E00825BD402543C6F808586F
:10040000DBF800405D464E689C43F60300D51C4374
:100410002C60DEF8004075464E689C43B60300D55C
:100420001C432C600B4D08352C684E689C43F6022B
:1004300000D51C432C60074D0C352C684E689C433E
:10044000B60200D51C432C60521C102AFFF44EAF9C
:10045000BDE8F88F003C01404438024000300140C4
:10046000000002400004024000080240000C02406C
:10047000001002400014024000180240001C02401C
:100480000AB1816170470904FBE7000001488068F8
:100490007047000000000020024881680278114483
:1004A00081607047000000200B4810B5016841F4DE
:1004B00000710160016841F480610160016841F4EC
:1004C00080710160032000F09FF8002000F006F822
:1004D00000F024F8002010BD003C024070B50D4D26
:1004E00004464FF47A712878B1FBF0F00A490968A4
:1004F000B1FBF0F000F0DDFB48B9102C07D2002270
:100500002146501E00F060F800206C6070BD012094
:1005100070BD0000000000200C000020234808B53A
:10052000016841F480410160006800F4804000905F
:100530001E48001F016841F080510160006800F012
:1005400080500090072000F05FF8002211466FF005
:100550000B0000F039F8002211466FF00A0000F09D
:1005600033F8002211466FF0090000F02DF8002248
:100570001146501F00F028F800221146101F00F00D
:1005800023F800221146901E00F01EF800221146AA
:10059000501E00F019F801220021052000F014F887
:1005A000BDE80840052000F003B8000044380240D0
:1005B00000F01F02012191404009800000F1E0207D
:1005C000C0F8001170470000F0B40E4B1B680C46D9
:1005D000C3F30223C3F10705042D00D90425191D17
:1005E000072901D2002300E0DB1E012606FA05F1EF
:1005F000491E214099409E40761E16403143F0BC72
:1006000000F03ABC0CED00E0064900F00702086873
:100610004FF6FF03184040EA0220034A10430860E7
:10062000704700000CED00E00000FA052DE9F047EE
:100630000E46050065D0DFF81481D8F80000F7B247
:1006400000F00F00B04207D288F80070D8F8000020
:1006500000F00F00B04254D128683D4C810712D5FC
:10066000400703D5206840F4E05020602878000758
:1006700003D5206840F4604020602068A96820F01D
:10068000F000084320602878C0072DD03049686802
:100690000839012812D0022813D0032811D0096884
:1006A000890700292DDA216821F003010143216027
:1006B000FFF7ECFE814641F2883A0EE009688903B3
:1006C000EFE709688901ECE7FFF7E0FEA0EB09011D
:1006D000514502D90320BDE8F0872068696800F021
:1006E0000C00B0EB810FEFD1D8F80010404601F0BC
:1006F0000F01B14207D90770006800F00F00B04247
:1007000001D00120E7E72878400705D52068E9688F
:1007100020F4E050084320602878000706D52068C0
:10072000296920F4604040EAC100206000F01CF814
:100730002168084AC1F30311515CC84006490860AA
:100740000020FFF7CBFE0020C5E70000003C024080
:1007500008380240EC0F00080C0000200148006837
:10076000704700000C000020154810B5006810F01C
:100770000C02144813D04110042A0FD0082A0ED1BD
:100780000F4C241F2268236802F03F025B0207D54A
:100790002068C0F38810A0FB010106E0084610BDE8
:1007A0002168C1F38811A1FB00010023FFF708FDB8
:1007B0002168C1F30141491C4900B0FBF1F010BDB3
:1007C000083802400024F4002DE9F84F050076D0E7
:1007D0002878DFF8F8B2BE4CC00749D0DBF800102B
:1007E0005846C1F38101012908D00068C0F3810097
:1007F00002280AD1201D0068400206D52068800327
:1008000036D568680028E2D032E06868B0F5803FED
:1008100010D0B0F5A02F206810D020F480302060D8
:10082000206820F4802020606868A0B1FFF72EFEC9
:1008300006460CE0206840F48030F4E740F4802065
:100840002060F7E7FFF722FE801B642873D820683A
:100850008003F7D50CE0FFF719FE064605E000BF60
:10086000FFF714FE801B6428F0D820688003F7D4BB
:100870002878DFF8608280074FF000093ED5DBF86A
:100880000010584611F00C0F09D00068C0F3810029
:1008900002280BD18D48001F0068400206D4206852
:1008A000800715D5E868012809D111E0E868B8B1DA
:1008B0000120C8F80000FFF7E9FD064605E002E167
:1008C000FFF7E4FD801B0228C0D820688007F7D519
:1008D0002068296920F0F80040EAC10020600DE09E
:1008E000C8F80090FFF7D2FD064604E0FFF7CEFD02
:1008F000801B02281FD820688007F7D428780007BB
:1009000022D5724E744869696C3671B1012101605B
:10091000FFF7BCFD074604E0FFF7B8FDC01B022847
:1009200009D830688007F7D50EE0C0F80090FFF7CF
:10093000ADFD074605E083E0FFF7A8FDC01B0228D8
:100940007ED830688007F7D42878400768D5DFF86C
:100950007CA100270AF1380ADAF80000C0000BD4A5
:10096000DAF8001041F08051CAF80010DAF80000FF
:10097000012700F080500090584E3068C00510D418
:10098000306840F480703060FFF780FD009005E033
:10099000FFF77CFD0099401A022851D83068C00545
:1009A000F6D54A4EA868683601280FD00528306869
:1009B00010D020F001003060306820F0040030607A
:1009C000A868B8B1FFF762FD00900FE0306840F012
:1009D0000100F4E740F004003060F7E7FFF756FD50
:1009E0000099411A41F28830814264D8306880070A
:1009F000F4D50EE0FFF74AFD009007E0FFF746FD53
:100A00000099411A41F28830814254D830688007F9
:100A1000F4D42FB1DAF8001021F08051CAF8001098
:100A2000A869C0B3DBF80010C1F3810102294AD0E4
:100A30000228484607D0C8F86000FFF727FD00E00D
:100A400039E005463AE04746C8F86000FFF71EFD6A
:100A5000064604E0FFF71AFD801B02282BD8206809
:100A60008001F7D4D5E907010843A96A1C4A49085F
:100A700002EB01416A6A41EA8211084395F82C10A1
:100A800040EA01611148001F016001203866FFF74C
:100A9000FDFC054605E014E0FFF7F8FC401B0228CA
:100AA00009D820688001F7D50BE000BFFFF7EEFC06
:100AB000401B022802D90320BDE8F88F206880017E
:100AC000F4D40020F8E70120F6E7000008380240DF
:100AD0000038024000004742800E4742007000404C
:100AE0000000FFFF7047000038B504460068426808
:100AF00081684B0605D4CB0703D0530601D5216C82
:100B000004E08B0707D5130605D5616C01B02046BC
:100B1000BDE83040084711F4B07F48D0930646D571
:100B20004B060AD594F85130032B3DD0636D43F04A
:100B300004036365C368836800938B0609D5636DFE
:100B400043F00103636583680093036823F0400367
:100B50000360C80506D5606D40F008006065206838
:100B600080680090606D002821D02068416821F0E5
:100B7000E0014160012084F85100900718D02068FE
:100B8000416821F0030141600B4DE06C18B105652F
:100B9000E06CFFF77EFBA06C002808D00565A06C18
:100BA000BDE83840FFF775BBC1688068009038BD6C
:100BB0002046FFF797FF38BDA90E000870B5040066
:100BC00005D00025A56294F8510010B106E001207F
:100BD00070BD84F85050204600F030F8022084F8B0
:100BE00051002068016821F040010160D4E9010151
:100BF0000843D4E903121143084361690843218B78
:100C000001F400710843E1690843216A0843A16ABD
:100C1000084321680860A069042101EA1040616A64
:100C20000843216848602068C16921F40061C161FE
:100C30006565012084F85100002070BD00B5006892
:100C4000124987B088421ED111480021026842F43F
:100C500080520260006800F480500590E02000900F
:100C60000220CDE90101032003900520049069468C
:100C70000848FFF72DFB012200212320FFF7A4FCE9
:100C80002320FFF795FC07B000BD000000300140B5
:100C900044380240000002404FF0E0210428086977
:100CA00003D020F004000861704740F00400FAE728
:100CB000704710B5401EB0F1807F01D3012010BDF8
:100CC0004FF0E02460610F21601700F0D5F800209C
:100CD000A06107202061002010BD10B5FFF7E8FFDC
:100CE00010BD00002DE9F0474C4886B00024016893
:100CF00041F010010160016801F0100105910168E7
:100D000041F004010160016801F0040105910168EE
:100D100041F080010160016801F0800105910168E6
:100D200041F001010160016801F0010105910168D4
:100D300041F002010160016801F0020105910168C2
:100D400041F0080101600068DFF8D48000F008007D
:100D5000059000220E214046FFF792FBDFF8C49079
:100D6000002210214846FFF78BFBDFF8BCA04FF4B0
:100D70007047002239465046FFF782FB0E200125BE
:100D8000022603948DE8610069464046FFF7A0FA09
:100D900030208DE8510069464046FFF799FA234814
:100DA0000095CDE9010469464846FFF791FA102005
:100DB000009011200394CDE9010569464846FFF7EC
:100DC00087FA0420CDE90004694619480294FFF728
:100DD0007FFAA80200901748CDE901046946504601
:100DE000FFF776FA0097CDE901546946504603941F
:100DF000FFF76EFA022200210620FFF7E5FB06202E
:100E0000FFF7D6FB012200212820FFF7DDFB282079
:100E1000FFF7CEFB06B0BDE8F08700003038024097
:100E20000010024000000240000C024000001110BF
:100E300000040240000021100E4810B50C4901606A
:100E40004FF48271416000218160C1604FF40072F3
:100E50000161C0E905123822C0E9072141628162BF
:100E60000A21C162FFF7AAFE002800D0FEE710BDEC
:100E700000300140100000200907090E002806DAA2
:100E800000F00F0000F1E02080F8141D704700F121
:100E9000E02080F800147047704770470148FFF762
:100EA00023BE00001000002010B5806B0021C18718
:100EB000C186FFF717FE10BD704710B5FFF7ECFABB
:100EC000BDE81040FFF709BF30B5254893B00025B5
:100ED000016841F080510160006800F0805011907D
:100EE0002048016841F4804101600068022400F458
:100EF0008040119001200090000401908001CDE914
:100F00000640082008904FF4A870CDE90904072096
:100F10000B906846FFF758FC00B1FEE70CA90F20C4
:100F200081E831004FF4A0500F904FF480501090A2
:100F300005210CA8FFF77AFB00B1FEE7FFF70EFCD6
:100F40004FF47A71B0FBF1F0FFF7B3FE0420FFF726
:100F5000A3FE00221146501EFFF736FB13B030BD32
:100F600040380240007000401048016841F47001B0
:100F700001600F48016841F0010101600C4A002145
:100F80000832116002680B4B1A400260031D0A4AC6
:100F90001A60026822F48022026005480C30016069
:100FA00002495806803908607047000088ED00E06B
:100FB00000380240FFFFF6FE1030002402E008C8AF
:100FC000121F08C1002AFAD170477047002001E0C3
:100FD00001C1121F002AFBD17047FFF765FAFFF726
:100FE00073FFFFF77FFEFFF727FFFEE7000000001B
:100FF0000000000001020304060708091C10000895
:101000000000002010000000BC0F00082C10000899
:101010001000002058040000CC0F00080100000060
:0C10200010000000000000000024F4009C
:040000050800018965
:00000001FF
