:020000040800F2
:10000000B00400209D010008A5010008A701000818
:10001000A9010008AB010008AD01000800000000C4
:10002000000000000000000000000000131D000898
:10003000B101000800000000991B0008391D0008EC
:10004000B7010008B7010008B7010008B7010008B0
:10005000B70100089B1B0008E1030008B701000876
:10006000B7010008B7010008B7010008B701000890
:10007000B7010008B7010008B7010008B701000880
:10008000B7010008B7010008B7010008B701000870
:10009000B7010008B7010008B7010008B701000860
:1000A000B7010008B7010008B7010008B701000850
:1000B000B7010008B7010008B7010008B701000840
:1000C000B7010008B7010008B7010008E51B0008E8
:1000D000B7010008B7010008B7010008B701000820
:1000E000EB030008B7010008B7010008B7010008DA
:1000F000B7010008B7010008B7010008B701000800
:10010000B7010008B7010008B7010008B7010008EF
:10011000B7010008B7010008B7010008B7010008DF
:10012000B7010008B7010008B7010008B7010008CF
:10013000B7010008B7010008B7010008B7010008BF
:10014000B7010008B7010008B7010008B7010008AF
:10015000B7010008B7010008B7010008B70100089F
:10016000B7010008B7010008B7010008B70100088F
:10017000B7010008B7010008B7010008000000003F
:10018000B7010008B7010008DFF80CD000F068F8EC
:100190000048004775260008B00400200648804744
:1001A00006480047FEE7FEE7FEE7FEE7FEE7FEE75C
:1001B000FEE7FEE7FEE7FEE7251E000889010008CE
:1001C0002DE9F05F0546002092469B46884606468C
:1001D000814640241BE0284641464746224600F01F
:1001E0002FF853465A46C01A914110D3114618466B
:1001F000224600F016F82D1A67EB01084F462246FA
:100200000120002100F00DF817EB00094E41201EDF
:10021000A4F10104DFDC484631462A464346BDE8E6
:10022000F09F202A04DB203A00FA02F100207047F8
:100230009140C2F1200320FA03F319439040704724
:10024000202A04DB203A21FA02F00021704721FA2B
:1002500002F3D040C2F12002914008431946704792
:10026000064C074D06E0E06840F0010394E8070003
:1002700098471034AC42F6D3FFF78AFFF426000803
:100280001427000870B504460021204601F086FCC2
:10029000054629462AA002F061F80121204601F016
:1002A0007DFC054629462AA002F058F80221204686
:1002B00001F074FC0546294629A002F04FF80321FD
:1002C000204601F06BFC0546294629A002F046F8BD
:1002D0000421204601F062FC0546294628A002F0D0
:1002E0003DF80521204601F059FC0546294628A085
:1002F00002F034F80621204601F050FC054629465C
:1003000026A002F02BF80721204601F047FC054605
:10031000294625A002F022F80821204601F03EFCE3
:100320000546294625A002F019F80921204601F0CA
:1003300035FC0546294625A002F010F870BD0000E6
:100340000A434F4E4649475F303A202523580A005A
:10035000434F4E4649475F313A202523580A000053
:10036000434F4E4649475F323A202523580A000042
:10037000434F4E4649475F333A202523580A000031
:10038000434F4E4649475F343A202523580A000020
:10039000544F465F313A202523580A00544F465F98
:1003A000303A202523580A004552524F525F464C9E
:1003B0004147533A202523580A00000054494D452F
:1003C0004F55543A202523580A000000434C4F4310
:1003D0004B5F524154453A202523580A0A00000039
:1003E00010B5012000F04EF810BD10B54FF480603C
:1003F00000F048F810BD014691F83500022803D0FE
:100400008020486501207047052081F83500086884
:10041000006820F001000A6810600020F3E7000087
:1004200070B5044600F046F906462546681C10B132
:1004300004480078054400BF00F03CF9801BA84246
:10044000FAD370BD0800002010B50446012C14D169
:1004500001220821094800F027F90122022107485A
:1004600000F022F96420FFF7DBFF0022022103489D
:1004700000F01AF90248FFF705FF10BD0010024016
:100480001400002010B5044604480068204020B144
:10049000024804602046FFF7D7FF10BD143C01401E
:1004A000F8B502460B460025002400200021DCE0C0
:1004B000012606FA01F51E6806EA0504AC4273D16E
:1004C0005E68022E02D05E68122E13D1CF0802F1B0
:1004D000200656F827004E07F70E0F26BE40B04301
:1004E0004F07FF0E1E69BE403043CF0802F12006C1
:1004F00046F8270010684F000326BE40B0431E791F
:1005000006F003064F00BE40304310605E68012EC7
:1005100008D05E68022E05D05E68112E02D05E689B
:10052000122E13D190684F000326BE40B0434F00F7
:10053000DE68BE4030439060506801268E40B04374
:100540001E79C6F300168E4030435060D0684F00CD
:100550000326BE40B0434F009E68BE403043D0608B
:100560005E6806F08056B6F1805F7DD100BF002640
:100570000096404E366846F480463E4F3E603E460A
:10058000366806F48046009600BF00BF3A4E8F08DA
:1005900056F827008E07370F0F26BE40B043374E60
:1005A000B24202D1002624E05EE0354EB24201D1D3
:1005B00001261EE0334EB24201D1022619E0324E2E
:1005C000B24201D1032614E0304EB24201D10426DA
:1005D0000FE02F4EB24201D105260AE02D4EB24265
:1005E00001D1062605E02C4EB24201D1072600E0DB
:1005F00008268F073F0FBE4030431F4E8F0846F836
:100600002700264E3068A0435E6806F48036B6F5B3
:10061000803F00D12043214E3060361D3068A0431A
:100620005E6806F40036B6F5003F00D120431B4E4D
:10063000361D3060361D3068A0435E6806F48016B3
:10064000B6F5801F00D12043144E08363060361DA9
:100650003068A0435E6806F40016B6F5001F00D1AE
:1006600020430E4E0C363060491C1029FFF420AF99
:10067000F8BD000044380240083801400000024044
:100680000004024000080240000C0240001002403A
:100690000014024000180240001C0240003C0140CF
:1006A00042694A40426170470AB1816101E00B042E
:1006B0008361704701480068704700000000002017
:1006C00003480068034909780844014908607047F5
:1006D000000000200800002010B50D48006840F41C
:1006E00000700B4908600846006840F480600860AC
:1006F0000846006840F480700860032000F0D2F8DB
:10070000002000F007F800F02BF8002010BD0000DA
:10071000003C024070B504460E4800784FF47A71F0
:10072000B1FBF0F00C490968B1FBF0F5284600F088
:10073000FAFF08B1012070BD102C07D2002221461B
:10074000501E00F070F80548046001E00120F2E757
:100750000020F0E7080000200C000020040000202A
:1007600008B500BF002000902748006840F4804092
:10077000254908600846006800F48040009000BFEA
:1007800000BF00BF00200090081F006840F08050AC
:10079000091F08600846006800F08050009000BF04
:1007A00000BF062000F07EF8002211466FF00B001B
:1007B00000F039F8002211466FF00A0000F033F81B
:1007C000002211466FF0090000F02DF800221146BA
:1007D000501F00F028F800221146101F00F023F8E7
:1007E00000221146901E00F01EF800221146501EF5
:1007F00000F019F800221146052000F014F8052039
:1008000000F004F808BD00004438024000BF00F0CA
:100810001F02012191404209920002F1E022C2F838
:10082000001100BF70472DE9F05F80460D46164667
:10083000002701F095F9074639462A46334601F06C
:100840000700C0F1070ABAF1040F02D94FF0040AF9
:1008500001E0C0F1070AD14600F1040ABAF1070F1E
:1008600002D24FF0000A01E0A0F1030AD4464FF093
:10087000010A0AFA09FAAAF1010A0AEA020A0AFABC
:100880000CFA4FF0010B0BFA0CFBABF1010B0BEA6E
:10089000030B4AEA0B042146404601F069F9BDE822
:1008A000F09F000000BF00F00702064B19684FF6EA
:1008B000FF031940044B0B4343EA0221014B19602B
:1008C00000BF70470CED00E00000FA0570B504466B
:1008D0000D460CB9012070BD5848006800F00F00AB
:1008E000A84209D255490D700846006800F00F0073
:1008F000A84201D00120EEE7207800F00200022893
:100900001DD1207800F00400042805D14C4800686F
:1009100040F4E0504A490860207800F008000828B8
:1009200005D14748006840F46040454908604448A4
:10093000006820F0F000A168084341490860207871
:1009400000F00100A8B36068012807D13C480838CE
:100950000068C0F34040B8B90120BCE760680228D5
:1009600002D06068032807D1354808380068C0F312
:10097000406048B90120AEE7314808380068C0F34C
:10098000400008B90120A6E72D48006820F00300C8
:10099000616808432A490860FFF78CFE064609E0B3
:1009A000FFF788FE801B41F28831884202D903207C
:1009B00091E707E02248006800F00C006168B0EBA6
:1009C000810FEDD11D48006800F00F00A84209D941
:1009D0001A490D700846006800F00F00A84201D0C7
:1009E000012078E7207800F00400042807D114489B
:1009F000006820F4E050E16808431149086020785D
:100A000000F00800082808D10D48006820F4604074
:100A1000216940EAC1000A49086000F03DF8084930
:100A20000968C1F30311074A515CC84006490860D0
:100A30000020FFF76FFE00204DE70000003C024061
:100A400008380240DC2600080C000020014800683D
:100A5000704700000C00002000B5FFF7F7FF0449C5
:100A60000968C1F38221034A515CC84000BD0000FF
:100A700008380240EC26000800B5FFF7E7FF0449FC
:100A80000968C1F34231034A515CC84000BD00000F
:100A900008380240EC2600082DE9F0470024002524
:100AA0000026A1462548006800F00C0020B104286B
:100AB00005D008283AD105E0DFF8849039E0DFF866
:100AC000849036E01D48001F006800F03F041B487A
:100AD000001F006800F4800078B11A481749091F08
:100AE0000968C1F38811A0FB01700146224600236A
:100AF0003846FFF765FB05460EE011480F49091F10
:100B00000968C1F38811A0FB017001462246002349
:100B10003846FFF755FB05460848001F0068C0F33C
:100B20000140401C4600B5FBF6F902E0DFF81090EA
:100B300000BF00BF4846BDE8F0870000083802400B
:100B40000024F40000127A00F8B504460CB9012024
:100B5000F8BD207800F00100002874D0F948006842
:100B600000F00C0004280DD0F648006800F00C00DE
:100B7000082813D1F348001F006800F48000B0F586
:100B8000800F0BD1EF4808380068C0F340400028C0
:100B900059D06068002856D10120D9E700BF6068AD
:100BA000B0F5803F08D1E7480838006840F480304D
:100BB000E449083908601EE06068B0F5A02F0DD147
:100BC000E0480838006840F48020DE4908390860B1
:100BD0000846006840F4803008600CE0D9480838C6
:100BE000006820F48030D74908390860084600685A
:100BF00020F48020086000BF606890B1FFF75AFDC4
:100C0000054606E0FFF756FD401B642801D9032086
:100C10009EE7CC4808380068C0F340400028F1D077
:100C200011E0FFF747FD054606E0FFF743FD401BD7
:100C3000642801D903208BE7C24808380068C0F354
:100C400040400028F1D1207800F0020002285FD156
:100C5000BC48006800F00C0058B1BA48006800F0C9
:100C60000C0008281CD1B748001F006800F4800061
:100C7000B0B9B44808380068C0F3400020B1E0685B
:100C8000012801D0012063E7AE480838006820F051
:100C9000F800216940EAC100AA490839086037E034
:100CA000E06800B30120A8490860FFF703FD05468E
:100CB00006E0FFF7FFFC401B022801D9032047E7AD
:100CC000A04808380068C0F340000028F1D09D48D3
:100CD0000838006820F0F800216940EAC10099490D
:100CE0000839086014E0002097490860FFF7E2FC2B
:100CF000054606E0FFF7DEFC401B022801D9032071
:100D000026E7904808380068C0F340000028F1D179
:100D1000207800F0080008282CD16069A8B10120D3
:100D20008A490860FFF7C6FC054606E0FFF7C2FCEB
:100D3000401B022801D903200AE782486C30006872
:100D4000C0F340000028F1D014E000207F49086083
:100D5000FFF7B0FC054606E0FFF7ACFC401B02289D
:100D600001D90320F4E677486C300068C0F34000F6
:100D70000028F1D1207800F00400042870D100266A
:100D800070483830006800F0805090B900BF0020F3
:100D900000906C483830006840F080506949383124
:100DA00008600846006800F08050009000BF00BF57
:100DB00001266748006800F48070B0B96448006894
:100DC00040F4807062490860FFF774FC054606E055
:100DD000FFF770FC401B022801D90320B8E65C48ED
:100DE000006800F480700028F2D000BFA0680128DD
:100DF00008D154486830006840F00100514968311A
:100E000008601DE0A06805280DD14E4868300068D4
:100E100040F004004B49683108600846006840F023
:100E2000010008600CE047486830006820F00100CD
:100E30004449683108600846006820F004000860F2
:100E400000BFA068A8B1FFF735FC054609E0FFF731
:100E500031FC401B41F28831884202D9032077E6F9
:100E600026E0384868300068C0F340000028EED023
:100E700013E0FFF71FFC054608E0FFF71BFC401BD3
:100E800041F28831884201D9032061E62D4868305B
:100E90000068C0F340000028EFD1012E07D1294897
:100EA0003830006820F0805026493831086000BF93
:100EB000A069B8B32348006800F00C0008285ED091
:100EC000A069022846D100201F490866FFF7F2FBFF
:100ED000054606E0FFF7EEFB401B022801D9032080
:100EE00036E6184808380068C0F340600028F1D1A1
:100EF000D4E907010843616A40EA81110122A06A2E
:100F0000C2EB500041EA00412C20005D41EA006044
:100F10000C49091F086001200B490866FFF7CAFB4E
:100F2000054607E02DE0FFF7C5FB401B022801D96D
:100F300003200DE6034808380068C0F3406000282D
:100F4000F1D01EE00838024000004742800E4742C0
:100F50000070004000200C490866FFF7ABFB054617
:100F600006E0FFF7A7FB401B022801D90320EFE5AD
:100F700006480068C0F340600028F2D101E001207B
:100F8000E6E50020E4E500000000474200380240AA
:100F90007047014691F8510070470000F8B50446CB
:100FA000206846682068856805F0400048B905F06B
:100FB000010030B106F0400018B12046216C88478E
:100FC000F8BD05F0020030B106F0800018B12046EF
:100FD000616C8847F4E705F4B070002876D006F01D
:100FE0002000002872D005F04000F0B194F85100C4
:100FF00003280ED0606D40F00400606500BF002043
:1010000000902068C068009020688068009000BF51
:101010000BE000BF002000902068C06800902068AE
:101020008068009000BF00BFCAE705F0200088B1CB
:10103000606D40F00100606500BF002000902068F6
:10104000806800902068006820F0400021680860F7
:1010500000BF00BF05F4807058B1606D40F008001B
:10106000606500BF0020009020688068009000BF8D
:1010700000BF606D20B32068406820F0E000216868
:101080004860012084F8510006F0020010B906F013
:101090000100B8B12068406820F003002168486072
:1010A000E06C28B10A48E16C0865E06CFFF7A3F931
:1010B000A06C28B10648A16C0865A06CFFF79BF9ED
:1010C00003E003E02046FFF763FF79E700BF77E71F
:1010D0001D1C000810B504460CB9012010BD606A43
:1010E00000B900BF0021A16294F8510028B9002086
:1010F00084F85000204600F033F8022084F85100B4
:101100002068006820F0400021680860D4E90101EF
:101110000843E16808432169084361690843218B5A
:1011200001F400710843E1690843216A0843A16A98
:101130000843216808600421A06901EA1040616A3F
:101140000843216848602068C06920F40060216875
:10115000C86100206065012084F851000020BDE7CF
:1011600010B586B0044616492068884225D100BFD4
:10117000002000901348006840F480501149086036
:101180000846006800F48050009000BF00BFE020D7
:10119000019002200290002003900320049005207B
:1011A000059001A90848FFF77BF90022114623208A
:1011B000FFF739FB2320FFF729FB06B010BD000025
:1011C0000030014044380240000002402DE9F8435D
:1011D00004460D4617461E464FF00008C14660689B
:1011E000B0F5827F0DD1A06858B9042084F8510071
:1011F0003B462A4629462046009600F070F9BDE895
:10120000F88300BF94F85000012801D10220F6E7CE
:10121000012084F8500000BFFFF74CFA804694F894
:101220005100012802D04FF002097BE005B117B947
:101230004FF0010976E0042084F851000020606539
:10124000A563A787E7872063A086E08620646064A3
:10125000A068B0F5004F05D12068006820F48040F8
:10126000216808602068006800F04000402805D030
:101270002068006840F0400021680860E068E8B934
:1012800018E02068806800F0010038B12068007B19
:1012900028706D1CE08F401EE0870BE03EB1701C93
:1012A00040B1FFF707FAA0EB0800B04202D34FF0BD
:1012B000030937E0E08F0028E3D11CE018E0206844
:1012C000806800F0010038B12068C0682880AD1C3B
:1012D000E08F401EE0870BE03EB1701C40B1FFF78D
:1012E000E9F9A0EB0800B04202D34FF0030919E07E
:1012F000E08F0028E3D16068B0F5827F0DD1A0684F
:10130000B0F5004F03D0A068B0F5806F05D120681C
:10131000006820F0400021680860606D08B14FF05F
:10132000010900BF012084F8510000BF002084F8AB
:10133000500000BF484662E72DE9F84304460D46D9
:1013400017461E464FF00008C14600BF94F85000F3
:10135000012802D10220BDE8F883012084F8500062
:1013600000BFFFF7A7F9804694F85100012802D08A
:101370004FF00209A9E005B117B94FF00109A4E047
:10138000032084F85100002060652563A786E78666
:10139000A063A087E08760642064A068B0F5004F78
:1013A00005D12068006840F480402168086020680A
:1013B000006800F04000402805D02068006840F038
:1013C000400021680860E068B0F5006F2AD16068CD
:1013D00010B1E08E012806D128882168C860AD1CB4
:1013E000E08E401EE08619E02068806800F0020070
:1013F000022807D128882168C860AD1CE08E401EF5
:10140000E0860BE03EB1701C40B1FFF753F9A0EB52
:101410000800B04202D34FF0030956E0E08E0028E6
:10142000E2D129E0606810B1E08E012806D1287869
:10143000216808736D1CE08E401EE08619E020686C
:10144000806800F00200022807D12878216808731C
:101450006D1CE08E401EE0860BE03EB1701C40B17A
:10146000FFF728F9A0EB0800B04202D34FF00309C0
:101470002BE0E08E0028E2D13346012202212046F3
:10148000CDF8008000F0F0FB10B14FF003091CE034
:1014900042463146204600F0ADFB20B14FF0010935
:1014A0002020606511E0A06850B900BF00200090C6
:1014B0002068C068009020688068009000BF00BF6E
:1014C000606D08B14FF0010900BF012084F85100A0
:1014D00000BF002084F8500000BF48463BE72DE9DC
:1014E000FE4F04460D4616461F46DDF830804FF08D
:1014F000000A0020029081464FF0010B019000BFCE
:1015000094F85000012802D10220BDE8FE8F01208E
:1015100084F8500000BFFFF7CDF8814694F851A041
:1015200060680290BAF1010F0BD00298B0F5827F8B
:1015300004D1A06810B9BAF1040F02D002200190C2
:10154000D2E00DB106B117B901200190CCE094F8BA
:101550005100012802D1052084F851000020606567
:10156000A663E787A7872563E786A786206460646C
:101570002068006800F04000402805D0206800681E
:1015800040F0400021680860E068B0F5006F43D18A
:10159000606810B1E08E012806D128882168C860F3
:1015A000AD1CE08E401EE0862FE0BBF1000F10D096
:1015B000E08E70B12068806800F00200022808D137
:1015C00028882168C860AD1CE08E401EE0864FF080
:1015D000000BE08F68B12068806800F0010040B126
:1015E0002068C0683080B61CE08F401EE0874FF056
:1015F000010B08F1010040B1FFF75CF8A0EB090016
:10160000404502D3032001906EE0E08E0028CCD14B
:10161000E08F0028C9D142E0606810B1E08E012857
:1016200006D12878216808736D1CE08E401EE08684
:101630002FE0BBF1000F10D0E08E70B12068806801
:1016400000F00200022808D115F8010B2168087388
:10165000E08E401EE0864FF0000BE08F68B12068FE
:10166000806800F0010040B12068C06806F8010BF6
:10167000E08F401EE0874FF0010B08F1010040B100
:10168000FFF718F8A0EB0900404502D303200190B2
:101690002AE0E08E0028CCD1E08F0028C9D1434653
:1016A000012202212046CDF8009000F0DDFA10B1B1
:1016B0000320019018E04A464146204600F09AFA7D
:1016C00020B101200190202060650DE0A06850B994
:1016D00000BF002000902068C068009020688068EB
:1016E000009000BF00BF00BF012084F8510000BF80
:1016F000002084F8500000BF019806E7042808D1B4
:101700004FF0E021096941F004014FF0E02211613E
:1017100007E04FF0E021096921F004014FF0E022D9
:1017200011617047704770B504462546681EB0F1D8
:10173000807F01D301200FE0681E4FF0E021486157
:101740000F214FF0FF3000F013FA00204FF0E0219E
:10175000886107200861002070BD10B5FFF7E2FF27
:1017600010BD10B504460CB9012010BDA06900B130
:1017700000E000BF94F8390028B9002084F8380050
:10178000204600F027F8242084F839002068C0683B
:1017900020F400502168C860204600F0F3FB206868
:1017A000006920F49040216808612068406920F0B9
:1017B0002A00216848612068C06840F40050216810
:1017C000C8600020E063202084F8390084F83A00E3
:1017D0000020CAE710B586B0044612492068884246
:1017E0001DD100BF002000900F48006840F4003079
:1017F0000D4908600846006800F40030009000BF02
:1018000000BF0C20019002200290012003900320D1
:1018100004900720059001A90448FEF741FE06B098
:1018200010BD00000044004040380240000002406B
:101830002DE9F84304460D4616461F464FF00009B1
:1018400094F8390020285CD105B116B90120BDE813
:10185000F88300BF94F83800012801D10220F6E790
:10186000012084F8380000BF0020E063212084F8C4
:101870003900FEF71FFF8146A684E6842BE0E08C4A
:10188000401EE084A068B0F5805F16D14B46002270
:1018900080212046009700F029FD08B10320D6E7FB
:1018A000A846B8F80000C0F3080021684860206925
:1018B00008B9AD1C0FE06D1C0DE04B4600228021E5
:1018C0002046009700F012FD08B10320BFE715F88D
:1018D000010B21684860E08C0028D0D14B460022E3
:1018E00040212046009700F001FD08B10320AEE73B
:1018F000202084F8390000BF002084F8380000BFA1
:10190000A5E70220A3E7000000B587B000BF0020D4
:1019100001906348006840F0100061490860084683
:10192000006800F01000019000BF00BF00BF002061
:1019300001900846006840F004000860084600680E
:1019400000F00400019000BF00BF00BF0020019024
:101950000846006840F0800008600846006800F013
:101960008000019000BF00BF00BF0020019008462A
:10197000006840F0010008600846006800F00100BF
:10198000019000BF00BF00BF002001900846006822
:1019900040F0020008600846006800F00200019074
:1019A00000BF00BF00BF002001900846006840F063
:1019B000080008600846006800F00800019000BFB9
:1019C00000BF00220E213748FEF76EFE01221021D3
:1019D0003548FEF769FE00224FF470413348FEF7A8
:1019E00063FE0E200290012003900220049000204C
:1019F000059002A92B48FEF753FD302002900020ED
:101A000003900220049002A92648FEF749FD012018
:101A10000290274803900020049002A92248FEF774
:101A20003FFD10200290112003900120049000201F
:101A3000059002A91C48FEF733FD04200290002007
:101A40000390049002A91B48FEF72AFD4FF4806022
:101A50000290194803900020049002A91348FEF751
:101A60001FFD4FF47040029001200390002004906D
:101A7000059002A90D48FEF713FD00220121062062
:101A8000FEF7D1FE0620FEF7C1FE0022012128202C
:101A9000FEF7C9FE2820FEF7B9FE07B000BD000022
:101AA000303802400010024000000240000C0240AA
:101AB00000001110000402400000211010B50F4872
:101AC0000F4908604FF48270486000210C48816023
:101AD000C160016141614FF4007181613821C161D0
:101AE00000210162416281620A21C162FFF7F2FABC
:101AF00018B1E62103A000F02FFC10BD003001401A
:101B0000140000202E2E2F5372632F6D61696E2EEC
:101B10006300000010B50C480C4908604FF4E13038
:101B20004860002109488160C16001610C21416168
:101B300000218161C161FFF714FE18B1F92104A0F1
:101B400000F00AFC10BD0000004400406C000020C2
:101B50002E2E2F5372632F6D61696E2E630000006D
:101B600002480068C0F30220704700000CED00E05E
:101B700010B5002807DA0A07140E054A00F00F0313
:101B80001B1FD45403E00A07130E024A135410BD5E
:101B900018ED00E000E400E0704770472DE9FC41DB
:101BA00005460C460194002210210D48FEF77CFDED
:101BB0006423012201A92846FFF7BEFB06466423E1
:101BC000012269462846FFF701FB07460122102142
:101BD0000348FEF769FD9DF80000BDE8FC810000A8
:101BE0000000024010B50248FFF7D8F910BD000010
:101BF00014000020F8B504460D4616462B46002278
:101C000080212046009600F02FF828B1606D40F04A
:101C1000200060650320F8BD0020FCE770B5054694
:101C2000AC6B0020E087E0862046FFF7B1F970BD7D
:101C30002DE9F04104460D4616461F4600221021AC
:101C40000848FEF731FD3B46324629462046FFF75D
:101C500073FB8046012210210248FEF725FD404615
:101C6000BDE8F081000002402DE9F04104460E4637
:101C700017461D46DDF818803FE0681CE0B32DB123
:101C8000FEF718FDA0EB0800A84236D32068406894
:101C900020F0E000216848606068B0F5827F0DD1D7
:101CA000A068B0F5004F03D0A068B0F5806F05D1F3
:101CB0002068006820F0400021680860A06AB0F544
:101CC000005F0ED100BF206800684DF6FF7108402C
:101CD000216808602068006840F4005021680860AE
:101CE00000BF012084F8510000BF002084F850009C
:101CF00000BF0320BDE8F081FFE720688068304026
:101D0000B04201D1012000E00020B842B5D100204E
:101D1000F0E77047F8B506460C46154604F140005A
:101D2000C0B28DF800008DF801506423022269468C
:101D30003046FFF77DFFF8BD10B5FEF7C1FCFFF799
:101D40000CFD10BD10B592B000BF002000902F48D0
:101D5000006840F080502D4908600846006800F097
:101D60008050009000BF00BF00BF002000902848B6
:101D7000006840F48040264908600846006800F486
:101D80008040009000BF00BF012006900004079033
:101D900002200C9041050D9108210E914FF4A8717D
:101DA0000F91022110910721119106A8FEF7CCFE98
:101DB00018B1B62117A000F0CFFA0F200190022031
:101DC0000290002003904FF4A05004904FF48050F4
:101DD0000590052101A8FEF779FD18B1C4210DA0D9
:101DE00000F0BAFAFEF732FE4FF47A71B0FBF1F46C
:101DF0002046FFF798FC0420FFF780FC00221146E4
:101E0000501EFEF710FD12B010BD00004038024019
:101E1000007000402E2E2F5372632F6D61696E2E5D
:101E2000630000001448006840F470001249086024
:101E30001248006840F001001049086000200F4976
:101E4000083108600D4800680D4908400B490860DA
:101E50000C48091D0860081F006820F48020091F35
:101E60000860002005490C3108604FF0006002490D
:101E7000803908607047000088ED00E000380240BB
:101E8000FFFFF6FE1030002470B5054637A000F0C5
:101E900065FAFEF70FFC84B200BF2846FFF779F819
:101EA000012805D0FEF706FC001BB0F5FA7FF4D33D
:101EB000FEF700FC001BB0F5FA7F01D3032070BDD4
:101EC000452200212846FFF725FF08B10120F6E74B
:101ED000402201212846FFF71DFF08B10120EEE74F
:101EE000A02202212846FFF715FF08B10120E6E7EE
:101EF000032211462846FFF70DFF08B10120DEE757
:101F00005F2204212846FFF705FF08B10120D6E72C
:101F1000E42205212846FFF7FDFE08B10120CEE7A7
:101F2000C82206212846FFF7F5FE08B10120C6E7C2
:101F3000032207212846FFF7EDFE08B10120BEE786
:101F40001F2208212846FFF7E5FE08B10120B6E769
:101F5000002209212846FFF7DDFE08B10120AEE787
:101F60002846FEF78FF90020A9E70000496E697442
:101F700069616C697A696E6720544443313031314C
:101F80000A0000002DE9F04104460025206805699B
:101F900025F44055E0680543206805612068C56860
:101FA00049F20C6085432169A068084361690843D0
:101FB000E169084305432068C5602068456925F448
:101FC0004075A069054320684561E069B0F5004FA0
:101FD0007ED1C4492068884203D0C3492068884222
:101FE0005DD1FEF749FD00EBC00101EB0010616817
:101FF0004900B0FBF1F06421B0FBF1F00601FEF7FF
:102000003BFD00EBC00101EB001061684900B0FB33
:10201000F1F7FEF731FD00EBC00101EB0010616844
:102020004900B0FBF1F06421B0FBF1F000EBC0011E
:1020300001EB0010A7EB8000322101EBC00064210E
:10204000B0FBF1F000F0F80006EB4006FEF714FDDF
:1020500000EBC00101EB001061684900B0FBF1F733
:10206000FEF70AFD00EBC00101EB001061684900BA
:10207000B0FBF1F06421B0FBF1F000EBC00101EB2B
:102080000010A7EB8000322101EBC0006421B0FBFF
:10209000F1F000F0070030442168886020E1FEF78D
:1020A000DBFC00EBC00101EB001061684900B0FBF4
:1020B000F1F06421B0FBF1F00601FEF7CDFC00EB7E
:1020C000C00101EB001061684900B0FBF1F700E0CE
:1020D00045E0FEF7C1FC00EBC00101EB00106168B8
:1020E0004900B0FBF1F06421B0FBF1F000EBC0015E
:1020F00001EB0010A7EB8000322101EBC00064214E
:10210000B0FBF1F000F0F80006EB4006FEF7A4FC8F
:1021100000EBC00101EB001061684900B0FBF1F772
:10212000FEF79AFC00EBC00101EB0010616849006A
:10213000B0FBF1F06421B0FBF1F000EBC00101EB6A
:102140000010A7EB8000322101EBC0006421B0FB3E
:10215000F1F000F00700304421688860C0E0614978
:102160002068884203D06049206888425CD1FEF72D
:1021700083FC00EBC00101EB001061688900B0FB3B
:10218000F1F6FEF779FC00EBC00101EB001061688D
:102190008900B0FBF1F06421B0FBF1F000EBC0016D
:1021A00001EB0010A6EB8000322101EB001064214E
:1021B000B0FBF1F000F0F006FEF75EFC00EBC001B2
:1021C00001EB001061688900B0FBF1F06421B0FB05
:1021D000F1F006EB0016FEF74FFC00EBC00101EB3F
:1021E000001061688900B0FBF1F7FEF745FC00EBD9
:1021F000C00101EB001061688900B0FBF1F06421BF
:10220000B0FBF1F000EBC00101EB0010A7EB800088
:10221000322101EB00106421B0FBF1F000F00F005F
:102220003044216888605BE0FEF716FC00EBC001DB
:1022300001EB001061688900B0FBF1F6FEF70CFCC1
:1022400000EBC00101EB001061688900B0FBF1F008
:102250006421B0FBF1F000EBC00101EB0010A6EB34
:102260008000322101EB00106421B0FBF1F000F09E
:10227000F006FEF7F1FB00EBC00101EB0010616816
:102280008900B0FBF1F06421B0FBF1F006EB001621
:10229000FEF7E2FB00EBC00101EB00106168890072
:1022A000B0FBF1F7FEF7D8FB00EBC00101EB00102B
:1022B00061688900B0FBF1F06421B0FBF1F000EB44
:1022C000C00101EB0010A7EB8000322101EB0010F0
:1022D0006421B0FBF1F000F00F0030442168886009
:1022E000BDE8F08100100140001401402DE9F041EB
:1022F00004460D4617469846069E21E0701CF8B12C
:102300002EB1FEF7D7F9A0EB0800B04218D920682B
:10231000C06820F4D0702168C8602068406920F04F
:10232000010021684861202084F8390084F83A00CF
:1023300000BF002084F8380000BF0320BDE8F08112
:10234000206800682840A84201D1012000E0002058
:10235000B842D3D00020F1E700BFFEE70FB4054B31
:1023600010B503A9044A029800F018F810BC5DF8F3
:1023700014FB00005D2600081000002002E008C8E1
:10238000121F08C1002AFAD170477047002001E0EF
:1023900001C1121F002AFBD1704700002DE9FF4F39
:1023A0008DB09B460F460446002606E025280BD03C
:1023B0005A460F999047641C761C20780028F5D166
:1023C00011B03046BDE8F08F0025A846012298499B
:1023D00000E0054314F8013F203B02FA03F00842F5
:1023E000F7D120782E2817D114F8010F45F00405F5
:1023F0002A280ED06FF02F022078A0F13001092991
:102400000AD808EB880102EB410100EB0108641CCB
:10241000F2E757F8048B641C20786C280DD004DC9C
:102420004C2812D06A2811D104E074280DD07A28E3
:102430000CD10AE045F4001507E0617845F48015F9
:10244000814202D1641C05F58015641C2278692A3A
:1024500045D008DC002AB3D0582A69D0632A10D0AE
:10246000642A08D13BE0702A67D0732A13D0752AFA
:102470005CD0782A5CD010465A460F999047761C5B
:10248000D3E017F8040B8DF8000000208DF8010050
:10249000E946012003E057F8049B4FF0FF3069073D
:1024A0004FF0000501D40AE06D1C45450DDA854268
:1024B000FADB19F805100029F6D106E06D1C8542FB
:1024C000FCDB19F805100029F8D12E4404E019F8B6
:1024D000010B5A460F9990476D1EF8D2A5E00A20CD
:1024E0000021CDE90801C5F3025002280DD001CF2B
:1024F000C117031E71F100030DDA4FF0000CD0EB91
:102500000C006CEB01012D2308E0FF1D27F00707ED
:10251000F7E80201EDE72B0504D52B238DF82830D1
:1025200001233BE0EB0739D02023F7E70A2000E046
:1025300010200021CDE9080107E01020002145F01E
:102540000405CDE908014FF00808C5F30250022840
:102550000FD001CF00214FF0000A2B071FD5702AA2
:102560000DD0DDE908C38CF0100C5CEA030C0CD034
:1025700015E0FF1D27F00707F7E80201EBE740220F
:102580008DF828204FF0010A0BE050EA010306D035
:1025900030238DF828308DF8292002239A46582AB6
:1025A00004D024A20DF120090B9209E026A2F9E73C
:1025B000DDE90823FDF704FE0B9B9B5C09F8013D58
:1025C00050EA0102F4D1ADEB090020300890680711
:1025D00001D44FF001080899884502DDA8EB0100FD
:1025E00000E000208046002506E00AA85A46405D2B
:1025F0000F9990476D1C761C5545F6DB04E03020A2
:102600005A460F999047761CB8F10001A8F10108CD
:10261000F5DC05E019F8010B5A460F999047761C36
:102620000899481E08900029F4DC641CC5E60000E7
:102630000928010030313233343536373839616298
:10264000636465660000000030313233343536375C
:1026500038394142434445460000000013B50C465A
:102660006423012269460248FFF7E2F800981CBD86
:102670006C000020FEF730F8FFF764FBFFF744F929
:10268000FFF71CFAFFF746FA1248FFF7FDFB1FE0C1
:102690004FF400511048FEF703F8FA20FDF7C0FE92
:1026A0004FF480510C48FDF7FBFFFA20FDF7B8FE10
:1026B0004FF480410848FDF7F3FFFA20FDF7B0FE24
:1026C0004FF400410448FDF7EBFFFA20FDF7A8FEA8
:1026D000DEE7000014000020000C024000000000B3
:1026E00000000000010203040607080900000000C2
:1026F0000102030414270008000000201400000059
:102700007C23000828270008140000209C040000F7
:102710008C230008000000001000000001000000F1
:082720000024F4000000000099
:040000050800018965
:00000001FF
